{
  "contractName": "Election",
  "abi": [
    {
      "inputs": [],
      "payable": false,
      "stateMutability": "nonpayable",
      "type": "constructor"
    },
    {
      "constant": true,
      "inputs": [],
      "name": "ballotCount",
      "outputs": [
        {
          "internalType": "uint256",
          "name": "",
          "type": "uint256"
        }
      ],
      "payable": false,
      "stateMutability": "view",
      "type": "function"
    },
    {
      "constant": true,
      "inputs": [
        {
          "internalType": "uint256",
          "name": "",
          "type": "uint256"
        }
      ],
      "name": "ballots",
      "outputs": [
        {
          "internalType": "uint256",
          "name": "id",
          "type": "uint256"
        },
        {
          "internalType": "string",
          "name": "name",
          "type": "string"
        },
        {
          "internalType": "string",
          "name": "startTime",
          "type": "string"
        },
        {
          "internalType": "string",
          "name": "endTime",
          "type": "string"
        },
        {
          "internalType": "uint256",
          "name": "candidatesCount",
          "type": "uint256"
        }
      ],
      "payable": false,
      "stateMutability": "view",
      "type": "function"
    },
    {
      "constant": false,
      "inputs": [
        {
          "internalType": "string",
          "name": "name",
          "type": "string"
        },
        {
          "internalType": "string",
          "name": "startTime",
          "type": "string"
        },
        {
          "internalType": "string",
          "name": "endTime",
          "type": "string"
        },
        {
          "internalType": "string",
          "name": "str",
          "type": "string"
        }
      ],
      "name": "addBallot",
      "outputs": [
        {
          "internalType": "uint256",
          "name": "ballotID",
          "type": "uint256"
        }
      ],
      "payable": false,
      "stateMutability": "nonpayable",
      "type": "function"
    },
    {
      "constant": true,
      "inputs": [
        {
          "internalType": "uint256",
          "name": "ballotID",
          "type": "uint256"
        },
        {
          "internalType": "uint256",
          "name": "canID",
          "type": "uint256"
        }
      ],
      "name": "getCandidate",
      "outputs": [
        {
          "internalType": "uint256",
          "name": "id",
          "type": "uint256"
        },
        {
          "internalType": "string",
          "name": "name",
          "type": "string"
        },
        {
          "internalType": "uint256",
          "name": "voteCount",
          "type": "uint256"
        }
      ],
      "payable": false,
      "stateMutability": "view",
      "type": "function"
    },
    {
      "constant": true,
      "inputs": [
        {
          "internalType": "uint256",
          "name": "ballotID",
          "type": "uint256"
        },
        {
          "internalType": "string",
          "name": "voterName",
          "type": "string"
        }
      ],
      "name": "votedORnot",
      "outputs": [
        {
          "internalType": "bool",
          "name": "voted",
          "type": "bool"
        },
        {
          "internalType": "uint256",
          "name": "voteTime",
          "type": "uint256"
        },
        {
          "internalType": "uint256",
          "name": "blockNo",
          "type": "uint256"
        }
      ],
      "payable": false,
      "stateMutability": "view",
      "type": "function"
    },
    {
      "constant": false,
      "inputs": [
        {
          "internalType": "uint256",
          "name": "ballotID",
          "type": "uint256"
        },
        {
          "internalType": "uint256",
          "name": "_candidateId",
          "type": "uint256"
        },
        {
          "internalType": "string",
          "name": "voterName",
          "type": "string"
        }
      ],
      "name": "vote",
      "outputs": [],
      "payable": false,
      "stateMutability": "nonpayable",
      "type": "function"
    }
  ],
  "bytecode": "0x608060405234801561001057600080fd5b50600080819055506112ae806100276000396000f3fe608060405234801561001057600080fd5b50600436106100625760003560e01c80630e9599e214610067578063198b03ac146101525780634bd46448146103e65780635c632b38146104a5578063a1bbfc0514610632578063c003003214610701575b600080fd5b61012a6004803603604081101561007d57600080fd5b8101908080359060200190929190803590602001906401000000008111156100a457600080fd5b8201836020820111156100b657600080fd5b803590602001918460018302840111640100000000831117156100d857600080fd5b91908080601f016020809104026020016040519081016040528093929190818152602001838380828437600081840152601f19601f82011690508083019250505050505050919291929050505061071f565b6040518084151515158152602001838152602001828152602001935050505060405180910390f35b6103d06004803603608081101561016857600080fd5b810190808035906020019064010000000081111561018557600080fd5b82018360208201111561019757600080fd5b803590602001918460018302840111640100000000831117156101b957600080fd5b91908080601f016020809104026020016040519081016040528093929190818152602001838380828437600081840152601f19601f8201169050808301925050505050505091929192908035906020019064010000000081111561021c57600080fd5b82018360208201111561022e57600080fd5b8035906020019184600183028401116401000000008311171561025057600080fd5b91908080601f016020809104026020016040519081016040528093929190818152602001838380828437600081840152601f19601f820116905080830192505050505050509192919290803590602001906401000000008111156102b357600080fd5b8201836020820111156102c557600080fd5b803590602001918460018302840111640100000000831117156102e757600080fd5b91908080601f016020809104026020016040519081016040528093929190818152602001838380828437600081840152601f19601f8201169050808301925050505050505091929192908035906020019064010000000081111561034a57600080fd5b82018360208201111561035c57600080fd5b8035906020019184600183028401116401000000008311171561037e57600080fd5b91908080601f016020809104026020016040519081016040528093929190818152602001838380828437600081840152601f19601f8201169050808301925050505050505091929192905050506108c1565b6040518082815260200191505060405180910390f35b61041c600480360360408110156103fc57600080fd5b810190808035906020019092919080359060200190929190505050610ac0565b6040518084815260200180602001838152602001828103825284818151815260200191508051906020019080838360005b8381101561046857808201518184015260208101905061044d565b50505050905090810190601f1680156104955780820380516001836020036101000a031916815260200191505b5094505050505060405180910390f35b6104d1600480360360208110156104bb57600080fd5b8101908080359060200190929190505050610bec565b60405180868152602001806020018060200180602001858152602001848103845288818151815260200191508051906020019080838360005b8381101561052557808201518184015260208101905061050a565b50505050905090810190601f1680156105525780820380516001836020036101000a031916815260200191505b50848103835287818151815260200191508051906020019080838360005b8381101561058b578082015181840152602081019050610570565b50505050905090810190601f1680156105b85780820380516001836020036101000a031916815260200191505b50848103825286818151815260200191508051906020019080838360005b838110156105f15780820151818401526020810190506105d6565b50505050905090810190601f16801561061e5780820380516001836020036101000a031916815260200191505b509850505050505050505060405180910390f35b6106ff6004803603606081101561064857600080fd5b8101908080359060200190929190803590602001909291908035906020019064010000000081111561067957600080fd5b82018360208201111561068b57600080fd5b803590602001918460018302840111640100000000831117156106ad57600080fd5b91908080601f016020809104026020016040519081016040528093929190818152602001838380828437600081840152601f19601f820116905080830192505050505050509192919290505050610dea565b005b610709611092565b6040518082815260200191505060405180910390f35b600080600060016000868152602001908152602001600020600601846040518082805190602001908083835b6020831061076e578051825260208201915060208101905060208303925061074b565b6001836020036101000a038019825116818451168082178552505050505050905001915050908152602001604051809103902060000160009054906101000a900460ff16925060016000868152602001908152602001600020600601846040518082805190602001908083835b602083106107fe57805182526020820191506020810190506020830392506107db565b6001836020036101000a038019825116818451168082178552505050505050905001915050908152602001604051809103902060010154915060016000868152602001908152602001600020600601846040518082805190602001908083835b60208310610881578051825260208201915060208101905060208303925061085e565b6001836020036101000a03801982511681845116808217855250505050505090500191505090815260200160405180910390206002015490509250925092565b600080600081548092919060010191905055506000549050600060016000805481526020019081526020016000209050600054816000018190555085816001019080519060200190610914929190611154565b508481600201908051906020019061092d929190611154565b5083816003019080519060200190610946929190611154565b50606083905060606040518060400160405280600181526020017f2c0000000000000000000000000000000000000000000000000000000000000081525090506000809050600080905060008090505b8451811015610ab257836000815181106109ac57fe5b602001015160f81c60f81b7effffffffffffffffffffffffffffffffffffffffffffffffffffffffffffff19168582815181106109e557fe5b602001015160f81c60f81b7effffffffffffffffffffffffffffffffffffffffffffffffffffffffffffff19161415610aa5576060610a25898584611098565b9050828060010193505082876004018190555060405180606001604052808481526020018281526020016000815250876005016000858152602001908152602001600020600082015181600001556020820151816001019080519060200190610a8f9291906111d4565b5060408201518160020155905050600182019350505b8080600101915050610996565b505050505050949350505050565b6000606060006001600086815260200190815260200160002060050160008581526020019081526020016000206000015492506001600086815260200190815260200160002060050160008581526020019081526020016000206001018054600181600116156101000203166002900480601f016020809104026020016040519081016040528092919081815260200182805460018160011615610100020316600290048015610bb15780601f10610b8657610100808354040283529160200191610bb1565b820191906000526020600020905b815481529060010190602001808311610b9457829003601f168201915b505050505091506001600086815260200190815260200160002060050160008581526020019081526020016000206002015490509250925092565b6001602052806000526040600020600091509050806000015490806001018054600181600116156101000203166002900480601f016020809104026020016040519081016040528092919081815260200182805460018160011615610100020316600290048015610c9e5780601f10610c7357610100808354040283529160200191610c9e565b820191906000526020600020905b815481529060010190602001808311610c8157829003601f168201915b505050505090806002018054600181600116156101000203166002900480601f016020809104026020016040519081016040528092919081815260200182805460018160011615610100020316600290048015610d3c5780601f10610d1157610100808354040283529160200191610d3c565b820191906000526020600020905b815481529060010190602001808311610d1f57829003601f168201915b505050505090806003018054600181600116156101000203166002900480601f016020809104026020016040519081016040528092919081815260200182805460018160011615610100020316600290048015610dda5780601f10610daf57610100808354040283529160200191610dda565b820191906000526020600020905b815481529060010190602001808311610dbd57829003601f168201915b5050505050908060040154905085565b60016000848152602001908152602001600020600601816040518082805190602001908083835b60208310610e345780518252602082019150602081019050602083039250610e11565b6001836020036101000a038019825116818451168082178552505050505050905001915050908152602001604051809103902060000160009054906101000a900460ff1615610e8257600080fd5b600082118015610ea8575060016000848152602001908152602001600020600401548211155b610eb157600080fd5b6001806000858152602001908152602001600020600601826040518082805190602001908083835b60208310610efc5780518252602082019150602081019050602083039250610ed9565b6001836020036101000a038019825116818451168082178552505050505050905001915050908152602001604051809103902060000160006101000a81548160ff0219169083151502179055504260016000858152602001908152602001600020600601826040518082805190602001908083835b60208310610f945780518252602082019150602081019050602083039250610f71565b6001836020036101000a0380198251168184511680821785525050505050509050019150509081526020016040518091039020600101819055504360016000858152602001908152602001600020600601826040518082805190602001908083835b602083106110195780518252602082019150602081019050602083039250610ff6565b6001836020036101000a03801982511681845116808217855250505050505090500191505090815260200160405180910390206002018190555060016000848152602001908152602001600020600501600083815260200190815260200160002060020160008154809291906001019190505550505050565b60005481565b60608084905060608484036040519080825280601f01601f1916602001820160405280156110d55781602001600182028038833980820191505090505b50905060008590505b84811015611147578281815181106110f257fe5b602001015160f81c60f81b828783038151811061110b57fe5b60200101907effffffffffffffffffffffffffffffffffffffffffffffffffffffffffffff1916908160001a90535080806001019150506110de565b5080925050509392505050565b828054600181600116156101000203166002900490600052602060002090601f016020900481019282601f1061119557805160ff19168380011785556111c3565b828001600101855582156111c3579182015b828111156111c25782518255916020019190600101906111a7565b5b5090506111d09190611254565b5090565b828054600181600116156101000203166002900490600052602060002090601f016020900481019282601f1061121557805160ff1916838001178555611243565b82800160010185558215611243579182015b82811115611242578251825591602001919060010190611227565b5b5090506112509190611254565b5090565b61127691905b8082111561127257600081600090555060010161125a565b5090565b9056fea265627a7a72315820b2b4bf6dc26bca2c0d2688da27d14df3389e9d2716cbb065fa2faf9596e6549964736f6c63430005100032",
  "source": "//pragma solidity >=0.6.0 <0.8.0;\npragma solidity ^0.5.16;\n//pragma experimental ABIEncoderV2;\n\ncontract Election {\n\n    // model a ballot \n    struct Ballot {\n        uint id;\n        string name;\n        string startTime; // should be uint\n        string endTime;  // should be uint\n        uint candidatesCount;\n        mapping(uint => Candidate) candidates;\n       //  mapping(address => bool) voters;\n       mapping(string => Vote) voters; // sql userid \n    }\n\n    // Model a Candidate\n    struct Candidate {\n        uint id;\n        string name;\n        uint voteCount;\n    }\n\n    // Model a vote\n    struct Vote {\n        bool voted; \n        uint voteTime;\n        uint blockNo; \n    }\n\n    // Store ballot Count\n    uint public ballotCount;\n\n    // Read/write ballot\n    mapping(uint => Ballot) public ballots;\n\n    constructor() public {\n        ballotCount = 0;\n    }\n\n    function substring(string memory str, uint startIndex, uint endIndex) private returns (string memory) {\n        bytes memory strBytes = bytes(str);\n        bytes memory result = new bytes(endIndex-startIndex);\n        for(uint i = startIndex; i < endIndex; i++) {\n            result[i-startIndex] = strBytes[i];\n        }\n        return string(result);\n    }\n\n    function addBallot (string memory name,\n        string memory startTime,\n        string memory endTime,\n        string memory str ) public returns (uint ballotID) {\n\n        ballotCount++;\n        ballotID = ballotCount;\n\n        Ballot storage b = ballots[ballotCount]; \n        b.id = ballotCount; \n        b.name = name;\n        b.startTime = startTime;\n        b.endTime = endTime;\n\n\n        bytes memory strBytes = bytes(str);\n        bytes memory seperator = bytes(\",\");\n        uint y = 0;\n        uint id = 0;\n        for(uint x = 0; x < strBytes.length; x++){\n            if(strBytes[x] == seperator[0] ){\n                // split\n                string memory n = substring(str, y, x);\n                id ++;\n                b.candidatesCount = id; \n                b.candidates[id] = Candidate(id, n, 0);\n                y = x+1;\n            }\n        }\n    }\n\n    function getCandidate(uint ballotID, uint canID) public view returns \n    (uint id, string memory name, uint voteCount) {\n        id = ballots[ballotID].candidates[canID].id;\n        name = ballots[ballotID].candidates[canID].name;\n        voteCount = ballots[ballotID].candidates[canID].voteCount;\n    }\n\n    function votedORnot(uint ballotID, string memory voterName) \n    public view returns (bool voted, uint voteTime, uint blockNo) {\n        voted = ballots[ballotID].voters[voterName].voted; \n        voteTime = ballots[ballotID].voters[voterName].voteTime; \n        blockNo = ballots[ballotID].voters[voterName].blockNo;\n    }\n\n    function vote (uint ballotID, uint _candidateId, string memory voterName) public {\n        // require that they haven't voted before\n        require(!ballots[ballotID].voters[voterName].voted);\n\n        // require a valid candidate\n        require(_candidateId > 0 && _candidateId <= ballots[ballotID].candidatesCount);\n\n        // record that voter has voted\n        ballots[ballotID].voters[voterName].voted = true;\n        ballots[ballotID].voters[voterName].voteTime = block.timestamp; \n        ballots[ballotID].voters[voterName].blockNo = block.number; \n\n        // update candidate vote Count\n        ballots[ballotID].candidates[_candidateId].voteCount ++;\n    }\n\n}",
  "sourcePath": "/home/erased/Desktop/DVotingSystemFrontend-Backend/contracts/Election.sol",
  "compiler": {
    "name": "solc",
    "version": "0.5.16+commit.9c3226ce.Emscripten.clang"
  },
  "schemaVersion": "3.3.4",
  "updatedAt": "2021-04-22T11:12:30.897Z",
  "networkType": "ethereum",
  "devdoc": {
    "methods": {}
  },
  "userdoc": {
    "methods": {}
  }
}